:100000000C945D000C9485000C9485000C94850084
:100010000C9485000C9485000C9485000C9485004C
:100020000C9485000C9485000C9485000C9485003C
:100030000C9485000C9485000C9485000C9485002C
:100040000C94CB020C9485000C943B030C94150388
:100050000C9485000C9485000C9485000C9485000C
:100060000C9485000C94850000000008000201003B
:100070000003040700000000000000000000000072
:10008000250028002B0000000000240027002A0083
:10009000040404040404040402020202020203032E
:1000A0000303030301020408102040800102040836
:1000B0001020010204081020BC0411241FBECFEF41
:1000C000D8E0DEBFCDBF11E0A0E0B1E0E2EEF9E0A4
:1000D00002C005900D92A038B107D9F722E0A0E840
:1000E000B1E001C01D92A632B207E1F710E0CDE504
:1000F000D0E004C02197FE010E94E904CC35D1076D
:10010000C9F70E946D030C94EF040C94000090E07A
:10011000FC01EC55FF4F249180579F4FFC018491C7
:10012000882399F090E0880F991FFC01EA57FF4F50
:10013000A591B491FC01E458FF4F859194918FB73C
:10014000F894EC91E22BEC938FBF089590E0FC01C2
:10015000E859FF4F2491FC01EC55FF4F3491FC010D
:10016000E057FF4FE491EE23C9F0222339F023300A
:1001700001F1A8F4213019F1223029F1F0E0EE0F5D
:10018000FF1FE458FF4FA591B4918FB7F894EC91FD
:10019000611126C030953E233C938FBF08952730D0
:1001A000A9F02830C9F0243049F7809180008F7D74
:1001B00003C0809180008F7780938000DFCF84B56B
:1001C0008F7784BDDBCF84B58F7DFBCF8091B0006E
:1001D0008F778093B000D2CF8091B0008F7DF9CF20
:1001E0003E2BDACF1F93CF93DF93182FEB010E94A2
:1001F0008700209739F460E0812FDF91CF911F9124
:100200000C94A600E12FF0E0E859FF4FE491E330B1
:1002100039F148F4E130B9F0E230E9F0C038D10505
:1002200054F361E0E9CFE73029F1E83059F1E430E7
:10023000A9F780918000806280938000D0938B002A
:10024000C0938A0004C084B5806884BDC7BDDF91B7
:10025000CF911F91089584B5806284BDC8BDF7CF4A
:1002600080918000806880938000D0938900C09343
:100270008800EDCF8091B00080688093B000C0937B
:10028000B300E5CF8091B00080628093B000C0934E
:10029000B400DDCF3FB7F89480918501909186013D
:1002A000A0918701B091880126B5A89B05C02F3F7A
:1002B00019F00196A11DB11D3FBFBA2FA92F982F8C
:1002C0008827BC01CD01620F711D811D911D42E087
:1002D000660F771F881F991F4A95D1F708958F924F
:1002E0009F92AF92BF92CF92DF92EF92FF924B011B
:1002F0005C010E944A016B017C010E944A016C1959
:100300007D098E099F09683E734081059105A8F318
:1003100021E0821A9108A108B10888EEC80E83E096
:10032000D81EE11CF11C81149104A104B10429F729
:10033000FF90EF90DF90CF90BF90AF909F908F9005
:100340000895AF92BF92CF92DF92EF92FF920F93F8
:100350001F93CF93DF936C017B018B01040F151F5B
:10036000EB015E01AE18BF08C017D10759F06991C3
:10037000D601ED91FC910190F081E02DC601099527
:10038000892B79F7C501DF91CF911F910F91FF90D4
:10039000EF90DF90CF90BF90AF900895FC01538D08
:1003A000448D252F30E0842F90E0821B930B54174F
:1003B00010F0CF96089501970895FC01918D828DDC
:1003C000981761F0A28DAE0FBF2FB11D5D968C9175
:1003D000928D9F5F9F73928F90E008958FEF9FEFB4
:1003E0000895FC01918D828D981731F0828DE80F70
:1003F000F11D858D90E008958FEF9FEF0895FC012A
:10040000918D228D892F90E0805C9F4F821B9109F6
:100410008F739927089589E891E00E94FF0121E0F8
:10042000892B09F420E0822F089580E090E0892B49
:1004300029F00E940B0281110C9400000895FC0128
:10044000A48DA80FB92FB11DA35ABF4F2C91848D35
:1004500090E001968F739927848FA689B7892C9392
:10046000A089B1898C91837080648C93938D848DE5
:10047000981306C00288F389E02D80818F7D8083E8
:100480000895EF92FF920F931F93CF93DF93EC01A8
:1004900081E0888F9B8D8C8D98131AC0E889F9892B
:1004A000808185FF15C09FB7F894EE89FF8960832E
:1004B000E889F98980818370806480839FBF81E0AF
:1004C00090E0DF91CF911F910F91FF90EF900895F1
:1004D000F62E0B8D10E00F5F1F4F0F731127E02ECC
:1004E0008C8D8E110CC00FB607FCFACFE889F98904
:1004F000808185FFF5CFCE010E941F02F1CFEB8DE9
:10050000EC0FFD2FF11DE35AFF4FF0829FB7F894D7
:100510000B8FEA89FB8980818062CFCFCF93DF93F5
:10052000EC01888D8823B9F0AA89BB89E889F9890B
:100530008C9185FD03C0808186FD0DC00FB607FC40
:10054000F7CF8C9185FFF2CF808185FFEDCFCE0173
:100550000E941F02E9CFDF91CF910895CF93DF93DF
:10056000FC0101900020E9F73197AF01481B590BBE
:10057000BC0189E891E00E94A101EC0142E050E059
:1005800062E171E089E891E00E94A1018C0F9D1F5A
:10059000DF91CF9108951F920F920FB60F92112401
:1005A0002F933F938F939F93AF93BF93809181013C
:1005B00090918201A0918301B091840130918001DA
:1005C00023E0230F2D3758F50196A11DB11D20936F
:1005D00080018093810190938201A0938301B09365
:1005E00084018091850190918601A0918701B0914D
:1005F00088010196A11DB11D80938501909386010C
:10060000A0938701B0938801BF91AF919F918F9183
:100610003F912F910F900FBE0F901F90189526E8D5
:10062000230F0296A11DB11DD2CF1F920F920FB6BC
:100630000F9211242F933F934F935F936F937F9368
:100640008F939F93AF93BF93EF93FF9389E891E0CC
:100650000E941F02FF91EF91BF91AF919F918F91E7
:100660007F916F915F914F913F912F910F900FBEAE
:100670000F901F9018951F920F920FB60F92112492
:100680002F938F939F93EF93FF93E0919901F091B4
:100690009A018081E0919F01F091A00182FD1BC031
:1006A00090818091A2018F5F8F732091A3018217A7
:1006B00041F0E091A201F0E0E757FE4F958F809363
:1006C000A201FF91EF919F918F912F910F900FBEFB
:1006D0000F901F9018958081F4CF789484B5826034
:1006E00084BD84B5816084BD85B5826085BD85B5D6
:1006F000816085BD80916E00816080936E00109254
:1007000081008091810082608093810080918100CE
:10071000816080938100809180008160809380005F
:100720008091B10084608093B1008091B0008160BD
:100730008093B00080917A00846080937A008091E9
:100740007A00826080937A0080917A008160809341
:100750007A0080917A00806880937A001092C100BC
:1007600083E00E94870084E00E94870085E00E9469
:10077000870086E00E94870082E00E94870087E071
:100780000E94870060E083E00E94A60060E084E0B1
:100790000E94A60060E085E00E94A60060E086E07E
:1007A0000E94A600E0919901F0919A0182E0808375
:1007B000E0919501F09196011082E0919701F091FE
:1007C00098018FEC80831092A101E0919D01F0913E
:1007D0009E0186E08083E0919B01F0919C018081E5
:1007E00080618083E0919B01F0919C018081886011
:1007F0008083E0919B01F0919C01808180688083DF
:10080000E0919B01F0919C0180818F7D8083C0E00D
:10081000D0E085E191E00E94AE0261E083E00E94B9
:10082000A60060E084E00E94A60066E970E082E035
:100830000E94F20060ED77E080E090E00E946F019E
:1008400070E060E082E00E94F20060E083E00E94DD
:10085000A60060E084E00E94A60068EE73E080E0FD
:1008600090E00E946F018FE291E00E94AE0260E092
:1008700083E00E94A60061E084E00E94A60066E991
:1008800070E082E00E94F20060ED77E080E090E0AE
:100890000E946F0170E060E082E00E94F20060E080
:1008A00083E00E94A60060E084E00E94A60068EE5B
:1008B00073E080E090E00E946F018AE491E00E9482
:1008C000AE0261E085E00E94A60060E086E00E9442
:1008D000A60066E970E087E00E94F20060ED77E034
:1008E00080E090E00E946F0170E060E087E00E948D
:1008F000F20060E085E00E94A60060E086E00E94D1
:10090000A60068EE73E080E090E00E946F0184E64C
:1009100091E00E94AE0260E085E00E94A60061E0E6
:1009200086E00E94A60066E970E087E00E94F2007F
:1009300060ED77E080E090E00E946F0170E060E0A1
:1009400087E00E94F20060E085E00E94A60060E07F
:1009500086E00E94A60068EE73E080E090E00E94CE
:100960006F01209709F455CF0E940B02882309F4E8
:1009700050CF0E9400004DCFE9E8F1E013821282CF
:1009800088EE93E0A0E0B0E084839583A683B783EC
:1009900084E091E09183808385EC90E09587848763
:1009A00084EC90E09787868780EC90E0918B808B39
:1009B00081EC90E0938B828B82EC90E0958B848B22
:1009C00086EC90E0978B868B118E128E138E148E90
:1009D0000895EE0FFF1F0590F491E02D0994F8940F
:0209E000FFCF47
:1009E200000000004102A101CE018E02FF01DD01E3
:1009F200F1010D0A0054657374696E67204D6F74BE
:100A02006F7220412028466F727761726429005408
:100A1200657374696E67204D6F746F722041202870
:100A22004261636B77617264290054657374696E05
:100A320067204D6F746F7220422028466F72776173
:100A42007264290054657374696E67204D6F746F08
:100A520072204220284261636B7761726429000030
:00000001FF
